:1000000045C0000053C0000051C000004FC00000B8
:100010004DC000004BC0000049C0000047C00000B8
:1000200045C000004DC0000041C000003FC00000BE
:100030003DC000003BC0000039C0000037C00000D8
:1000400035C0000033C0000031C000002FC00000E8
:100050002DC000002BC0000029C0000027C00000F8
:1000600025C0000023C0000021C000001FC0000008
:100070001DC000001BC0000019C0000017C0000018
:1000800015C0000013C0000011C0000011241FBEE5
:10009000CFEFD0E1DEBFCDBF21E0A0E0B1E001C0F5
:1000A0001D92A130B207E1F72DD031C0A9CF85E76D
:1000B00083BD87B7806887BF78948CE085BD08953D
:1000C0001F920F920FB60F9211248F93809100010F
:1000D000811109C082B3806882BB8AED83BD81E053
:1000E0008093000109C0813039F482B38F7782BBDD
:1000F00085E783BD109200018F910F900FBE0F9086
:100100001F90189581B3806881BBD1DFFFCFF89431
:02011000FFCF1F
:00000001FF
