S01200004F7064726163687442322E7372656369
S113000045C000004BC0000049C0000047C00000CC
S113001045C0000043C0000041C000003FC00000D4
S11300203DC000003BC0000039C0000037C00000E4
S113003035C0000033C0000031C000002FC00000F4
S11300402DC000002BC0000029C0000027C0000004
S113005025C0000023C0000021C000001FC0000014
S11300601DC000001BC0000019C0000017C0000024
S113007015C0000013C0000011C000000FC0000034
S11300800DC000000BC0000009C0000011241FBEF9
S1130090CFEFD0E1DEBFCDBF5BD0A0C0B1CF20E0B9
S11300A030E008C0EFECF7E03197F1F700C0000052
S11300B02F5F3F4F28173907ACF308958FEF87BBA5
S11300C087B3877F87BB88B3816088BB82E58DB99E
S11300D008958FB9779BFECF089588B38E7F88BB30
S11300E0089588B3816088BB0895CF93DF93D82F98
S11300F0C62FF3DF8D2FEDDF8C2FEBDFF2DFDF91E7
S1130100CF9108956FEF89E0F0DF6FE08AE0EDDFD3
S113011063E08BE0EADF61E08CE0E7CF08950F93C2
S11301201F93CF938C01003187E2180768F4C1E074
S113013009C0C8016AE070E02AD08B01682F8C2FB7
S1130140D4DFCF5FC530A8F3CF911F910F910895ED
S113015081E087BBB3DFD6DF82ED94E0E0DF80EDA2
S113016097E09DDF88E390E0DADF80ED97E097DFAA
S113017087E090E0D4DF80ED97E091DF8FE097E2B5
S1130180CEDF80ED97E08BDF81E090E0089597FB70
S1130190072E16F4009406D077FD08D00BD007FC88
S11301A005D03EF4909581959F4F08957095619583
S11301B07F4F0895AA1BBB1B51E107C0AA1FBB1F99
S11301C0A617B70710F0A61BB70B881F991F5A95DF
S11301D0A9F780959095BC01CD010895F894FFCFBF
S9030000FC
