S01200004F7064726163687442322E7372656369
S113000045C000005BC0000049C0000047C00000BC
S113001045C0000043C0000041C000003FC00000D4
S11300203DC000003BC0000039C0000037C00000E4
S113003035C0000033C0000031C000002FC00000F4
S11300402DC000002BC0000029C0000027C0000004
S113005025C0000023C0000021C000001FC0000014
S11300601DC000001BC0000019C0000017C0000024
S113007015C0000013C0000011C000000FC0000034
S11300800DC000000BC0000009C0000011241FBEF9
S1130090CFEFD0E1DEBFCDBF3DD04CC0B1CF20E02B
S11300A030E008C0EFECF7E03197F1F700C0000052
S11300B02F5F3F4F28173907ACF308951F920F9213
S11300C00FB60F9211240BB60F922F933F934F93B9
S11300D05F936F937F938F939F93AF93BF93EF93AC
S11300E0FF9385B3869585BB84EF91E0D8DFFF91BC
S11300F0EF91BF91AF919F918F917F916F915F919C
S11301004F913F912F910F900BBE0F900FBE0F9008
S11301101F9018958FEF84BB80EF81BB80E885BB6F
S1130120EAE6F0E080818B60808389B7836089BFD1
S10B01307894FFCFF894FFCF8F
S9030000FC
