S01300004F706472616368744232422E7372656326
S113000045C000004BC0000049C0000047C00000CC
S113001045C0000043C0000041C000003FC00000D4
S11300203DC000003BC0000039C0000037C00000E4
S113003035C0000033C0000031C000002FC00000F4
S11300402DC000002BC0000029C0000027C0000004
S113005025C0000023C0000021C000001FC0000014
S11300601DC000001BC0000019C0000017C0000024
S113007015C0000013C0000011C000000FC0000034
S11300800DC000000BC0000009C0000011241FBEF9
S1130090CFEFD0E1DEBFCDBFADD0F2C0B1CF20E015
S11300A030E008C0EFECF7E03197F1F700C0000052
S11300B02F5F3F4F28173907ACF308958FEF87BBA5
S11300C087B3877F87BB88B3816088BB82E58DB99E
S11300D008958FB9779BFECF089588B38E7F88BB30
S11300E0089588B3816088BB0895CF93DF93D82F98
S11300F0C62FF3DF8D2FEDDF8C2FEBDFF2DFDF91E7
S1130100CF9108956FEF89E0F0DF6FE08AE0EDDFD3
S113011063E08BE0EADF61E08CE0E7CF0895EF92E3
S1130120FF920F931F93CF93DF93CDB7DEB728973A
S11301300FB6F894DEBF0FBECDBF99233CF4919562
S113014081959109EE24E394F12C02C0E12CF12C69
S1130150FE01319628E0DF011D922A95E9F720E09F
S113016030E089010F5F1F4F6AE070E062D0220F18
S1130170331FE1E0F0E0EC0FFD1FE20FF31F91836A
S11301808083862F972F1816190624F498010330BC
S113019011053CF3EF2861F0000F111FE1E0F0E0DE
S11301A0EC0FFD1FE00FF11F8AE090E09183808344
S11301B000E010E00FC0F801EE0FFF1F81E090E0B7
S11301C08C0F9D1FE80FF91F608181E0800F8DDF88
S11301D00F5F1F4F0430110574F328960FB6F8947F
S11301E0DEBF0FBECDBFDF91CF911F910F91FF9066
S11301F0EF90089581E087BB61DF84DF81E491E0C3
S11302008EDF80ED97E04BDF8AEC9FEF88DF80ED97
S113021097E045DF89E19CEF82DF80ED97E03FDFE7
S113022087EF9FEF7CDF80ED97E039DF81E090E09E
S1130230089597FB072E16F4009406D077FD08D096
S11302400BD007FC05D03EF4909581959F4F0895FF
S1130250709561957F4F0895AA1BBB1B51E107C0A0
S1130260AA1FBB1FA617B70710F0A61BB70B881F42
S1130270991F5A95A9F780959095BC01CD010895D1
S1070280F894FFCF1C
S9030000FC
