S014000045696E646F706472616368742E737265633B
S113000045C00000D2C100001BC200005CC000005B
S11300105AC0000058C0000056C0000054C0000080
S113002052C0000050C000004EC000004CC0000090
S11300304AC0000048C0000046C0000044C00000A0
S113004042C0000040C000003EC000003CC00000B0
S11300503AC0000038C0000036C0000034C00000C0
S113006032C0000030C000002EC000002CC00000D0
S11300702AC0000028C0000026C0000024C00000E0
S113008022C0000020C000001EC0000011241FBEBA
S1130090CFEFD0E1DEBFCDBF11E0A0E0B1E0EAECEC
S11300A0FBE000E00BBF02C007900D92A831B1073E
S11300B0D9F721E0A8E1B1E001C01D92AD31B2074A
S11300C0E1F708D280C59CCF85B3886085BB8FECEF
S11300D097E00197F1F700C0000085B3877F85BBE7
S11300E08FEC97E00197F1F700C000000895CF93DB
S11300F08FEF84BB15BAC0E2C5BBE6DFC5BBE4DF46
S113010080E885BBE1DF15BADFDF80EF85BBDCDF8C
S113011015BADADF80E685BBD7DFCF910895CF9398
S1130120C82F85BB85B3846085BBCEDFC295C07FF5
S1130130C5BB85B3846085BBC7DFCF910895CF93DA
S1130140DF93EC0102C0EBDF219688818111FBCFA4
S1130150DF91CF910895CF93C82F85BB85B38B7F53
S113016085BBB2DFC295C07FC5BB85B38B7F85BB22
S1130170ABDFCF91089581E0EEDF8FE99FE0019737
S1130180F1F700C0000008958FEF87BB87B3877F26
S113019087BB88B3816088BB82E58DB908958FB928
S11301A0779BFECF089588B38E7F88BB089588B36C
S11301B0816088BB0895CF93DF93D82FC62FF3DFD8
S11301C08D2FEDDF8C2FEBDFF2DFDF91CF910895E0
S11301D06FEF89E0F0DF6FE08AE0EDDF63E08BE052
S11301E0EADF61E08CE0E7CF0895EF92FF920F938E
S11301F01F93CF93DF93CDB7DEB728970FB6F8944C
S1130200DEBF0FBECDBF99233CF491958195910932
S1130210EE24E394F12C02C0E12CF12CFE01319682
S113022028E0DF011D922A95E9F720E030E08901FA
S11302300F5F1F4F6AE070E0ABD1220F331FE1E084
S1130240F0E0EC0FFD1FE20FF31F91838083862FF4
S1130250972F1816190624F49801033011053CF35E
S1130260EF2861F0000F111FE1E0F0E0EC0FFD1F3B
S1130270E00FF11F8AE090E09183808300E010E0BA
S11302800FC0F801EE0FFF1F81E090E08C0F9D1F5F
S1130290E80FF91F608181E0800F8DDF0F5F1F4F32
S11302A00430110574F328960FB6F894DEBF0FBE20
S11302B0CDBFDF91CF911F910F91FF90EF900895E3
S11302C081E087BB61DF84CF0895682F80E090E0F0
S11302D069C4089580E090E05DC4089520E030E0B2
S11302E008C0EFECF7E03197F1F700C000002F5F92
S11302F03F4F28173907ACF3089583EE87B986E892
S113030086B9089586B1806486B93699FECF85B1E1
S11303100895EF92FF920F931F93CF93DF93CDB77E
S1130320DEB7EC970FB6F894DEBF0FBECDBF182F23
S1130330092FF62EE72E1FDF0F931F9380E091E025
S11303409F938F938E010F5F1F4F1F930F9347D17E
S1130350C801F5DE80ECFFDEEF92FF928AE091E0C7
S11303609F938F93025E1F4F1F930F9338D1C80141
S1130370E6DE0FB6F894DEBF0FBECDBFEC960FB627
S1130380F894DEBF0FBECDBFDF91CF911F910F91C7
S1130390FF90EF900895EAE6F0E080818A60808320
S11303A089B7836089BF789408951F920F920FB61E
S11303B00F9211240BB60F922F933F934F935F9399
S11303C06F937F938F939F93AF93BF93EF93FF9319
S11303D080911801811121C081E0809318018091DE
S11303E01B0190911C0118161906BCF480911B0185
S11303F090911C01019790931C0180931B018091A3
S11304001B0190911C0161DF60911B0170911C0123
S11304108091190190911A017CDFFF91EF91BF91B6
S1130420AF919F918F917F916F915F914F913F9188
S11304302F910F900BBE0F900FBE0F901F90189529
S11304401F920F920FB60F9211240BB60F922F9397
S11304503F934F935F936F937F938F939F93AF9348
S1130460BF93EF93FF9380911801811120C081E025
S11304708093180180911B0190911C01C297BCF4D8
S113048080911B0190911C01019690931C01809313
S11304901B0180911B0190911C0117DF60911B01CE
S11304A070911C018091190190911A0132DFFF9122
S11304B0EF91BF91AF919F918F917F916F915F91D8
S11304C04F913F912F910F900BBE0F900FBE0F9045
S11304D01F901895109261008FEF8ABBE4E6F0E05C
S11304E080818160808381B3837F81BB82B38C6090
S11304F082BB03DFE5DEFBDD3EDE4DDFEBDE90E0BD
S113050090931C0180931B0180911B0190911C010D
S1130510C39734F08AE190E090931C0180931B010F
S113052060911B0170911C018091190190911A0135
S1130530F0DE84E690E0D2DE10921801E3DE8BBB9D
S1130540C82FD0E0CE0151DE8091190190911A019B
S1130550C817D90751F060911B0170911C01CE019D
S1130560D8DED0931A01C093190180911B01909198
S11305701C01C817D90734F0E5E6F0E080818160FA
S11305808083D7CFE5E6F0E080818E7F8083D1CF72
S113059097FB072E16F4009406D077FD08D00BD0F5
S11305A007FC05D03EF4909581959F4F0895709572
S11305B061957F4F0895AA1BBB1B51E107C0AA1F79
S11305C0BB1FA617B70710F0A61BB70B881F991FF0
S11305D05A95A9F780959095BC01CD0108950F9384
S11305E01F93CF93DF93CDB7DEB72E970FB6F89452
S11305F0DEBF0FBECDBF0D891E8986E08C831A83B2
S113060009838FEF9FE79E838D83AE01475E5F4F23
S11306106F89788DCE01019610D0EF81F885E00FB7
S1130620F11F10822E960FB6F894DEBF0FBECDBF19
S1130630DF91CF911F910F9108952F923F924F9286
S11306405F926F927F928F929F92AF92BF92CF925E
S1130650DF92EF92FF920F931F93CF93DF93CDB767
S1130660DEB72B970FB6F894DEBF0FBECDBF6C017B
S11306707B018A01FC0117821682838181FFBFC13D
S1130680CE0101963C01F6019381F70193FD85911A
S113069093FF81917F01882309F4ADC1853239F438
S11306A093FD859193FF81917F01853221F4B601F9
S11306B090E0D6D1E8CF912C212C312CFFE1F31519
S11306C0D8F08B3279F038F4803279F08332A1F4A7
S11306D0232D20611DC08D3261F0803369F4232DF8
S11306E0216016C0832D8260382EE32DE4603E2EF7
S11306F02AC0F32DF8601DC037FC2DC020ED280F53
S11307002A3040F08E32B9F436FC75C1232D2064B2
S1130710322E19C036FE06C08AE0989E200D1124A0
S1130720922E11C0EAE02E9E200D1124222EF32DCC
S1130730F0623F2E08C08C3621F4832D8068382E59
S113074002C0883641F4F70193FD859193FF8191AE
S11307507F018111B3CF982F9F7D9554933028F456
S11307600C5F1F4F9FE399830DC0833631F08337AD
S113077071F0833509F055C020C0F8018081898368
S11307800E5F1F4F88248394912C530112C02801BB
S1130790F2E04F0E511CF801A080B18036FE03C078
S11307A0692D70E002C06FEF7FEFC5014ED14C019F
S11307B08201F32DFF773F2E15C0280122E0420E5F
S11307C0511CF801A080B18036FE03C0692D70E091
S11307D002C06FEF7FEFC5012DD14C01F32DF068FE
S11307E03F2E820133FC19C0822D90E088169906B1
S11307F0A0F4B60180E290E033D12A94F5CFF5015C
S113080037FC859137FE81915F01B60190E028D1D4
S113081021102A9421E0821A91088114910479F715
S1130820E1C0843611F0893639F5F80137FE07C086
S113083060817181828193810C5F1F4F08C0608148
S11308407181072E000C880B990B0E5F1F4FF32D3F
S1130850FF763F2E97FF09C090958095709561951E
S11308607F4F8F4F9F4FF0683F2E2AE030E0A30167
S113087033D1882E861844C0853731F4232D2F7E3A
S1130880B22E2AE030E025C0932D997FB92E8F3601
S1130890C1F018F4883579F0AEC0803719F0883784
S11308A021F0A9C0E92FE061BE2EB4FE0DC0FB2DDE
S11308B0F460BF2E09C034FE0AC0292F2660B22E70
S11308C006C028E030E005C020E130E002C020E1AD
S11308D032E0F801B7FE07C06081718182819381A3
S11308E00C5F1F4F06C06081718180E090E00E5F55
S11308F01F4FA301F1D0882E8618FB2DFF773F2EC2
S113090036FE0DC0232D2E7FA22E891458F434FEFA
S11309100BC032FC09C0832D8E7EA82E05C0B82CD6
S1130920A32C03C0B82C01C0B92CA4FE0FC0FE0137
S1130930E80DF11D8081803321F49A2D997EA92E32
S113094009C0A2FE06C0B394B39404C08A2D86786D
S113095009F0B394A3FC10C0A0FE06C0B21480F446
S1130960280C922C9B180DC0B21458F4B60180E2E6
S113097090E076D0B394F8CFB21418F42B1802C0D8
S1130980982C212CA4FE0FC0B60180E390E068D01F
S1130990A2FE16C0A1FC03C088E790E002C088E56F
S11309A090E0B6010CC08A2D867851F0A1FE02C0F9
S11309B08BE201C080E2A7FC8DE2B60190E050D04A
S11309C0891430F4B60180E390E04AD09A94F8CFC9
S11309D08A94F301E80DF11D8081B60190E040D0C6
S11309E08110F6CF222009F44ECEB60180E290E0C9
S11309F037D02A94F7CFF6018681978102C08FEF12
S1130A009FEF2B960FB6F894DEBF0FBECDBFDF91DC
S1130A10CF911F910F91FF90EF90DF90CF90BF90F7
S1130A20AF909F908F907F906F905F904F903F908A
S1130A302F900895FC010590615070400110D8F783
S1130A40809590958E0F9F1F0895FC016150704012
S1130A5001900110D8F7809590958E0F9F1F0895EF
S1130A600F931F93CF93DF93FB01238121FD03C0D9
S1130A708FEF9FEF2CC022FF16C04681578124813F
S1130A8035814217530744F4A081B1819D012F5F42
S1130A903F4F318320838C93268137812F5F3F4FD3
S1130AA03783268314C08B01EC01FB010084F1859C
S1130AB0E02D0995892BE1F6D80116968D919C912C
S1130AC01797019617969C938E931697CE01DF91F4
S1130AD0CF911F910F910895FA01AA27283051F15F
S1130AE0203181F1E8946F936E7F6E5F7F4F8F4F5B
S1130AF09F4FAF4FB1E03ED0B4E03CD0670F781FBA
S1130B00891F9A1FA11D680F791F8A1F911DA11D9E
S1130B106A0F711D811D911DA11D20D009F46894D7
S1130B203F912AE0269F11243019305D3193DEF67F
S1130B30CF010895462F4770405D4193B3E00FD035
S1130B40C9F7F6CF462F4F70405D4A3318F0495D20
S1130B5031FD4052419302D0A9F7EACFB4E0A69503
S1130B609795879577956795BA95C9F70097610525
S1130B70710508959B01AC010A2E0694579547957B
S1130B8037952795BA95C9F7620F731F841F951F70
S1130B90A01D0895E199FECF9FBB8EBBE09A9927D3
S1130BA08DB30895262FE199FECF9FBB8EBBE09AAB
S1130BB001970DB2021631F02DBB0FB6F894E29AEC
S10D0BC0E19A0FBE0895F894FFCFE8
S1130BCA54656D703A2025644300547269676765F9
S10B0BDA723A20256443000077
S9030000FC
