:1000000045C000004BC0000049C0000047C00000D0
:1000100045C0000043C0000041C000003FC00000D8
:100020003DC000003BC0000039C0000037C00000E8
:1000300035C0000033C0000031C000002FC00000F8
:100040002DC000002BC0000029C0000027C0000008
:1000500025C0000023C0000021C000001FC0000018
:100060001DC000001BC0000019C0000017C0000028
:1000700015C0000013C0000011C000000FC0000038
:100080000DC000000BC0000009C0000011241FBEFD
:10009000CFEFD0E1DEBFCDBF42D063C0B1CF20E013
:1000A00030E008C0EFECF7E03197F1F700C0000056
:1000B0002F5F3F4F28173907ACF308958FEF87BBA9
:1000C00087B3877F87BB88B3816088BB82E58DB9A2
:1000D00008958FB9779BFECF089588B38E7F88BB34
:1000E000089588B3816088BB0895CF93DF93D82F9C
:1000F000C62FF3DF8D2FEDDF8C2FEBDFF2DFDF91EB
:10010000CF9108956FEF89E0F0DF6FE08AE0EDDFD7
:1001100063E08BE0EADF61E08CE0E7CF0895CF9306
:1001200081E087BBCBDFEEDFC1E004C060E08C2F55
:10013000DCDFCF5FC530D0F388EE93E0B0DFC1E005
:1001400007C06C2F8C2FD1DF88EE93E0A8DFCF5F44
:10015000C530B8F388EE93E0A2DF81E090E0CF9164
:060160000895F894FFCFA2
:00000001FF
