:1000000055C0000064C000007CC000005FC000005C
:100010005DC000005BC0000059C0000057C0000078
:1000200055C0000053C0000051C000004FC0000088
:100030004DC000004BC0000049C0000047C0000098
:1000400045C0000043C0000041C000003FC00000A8
:100050003DC000003BC0000039C0000037C00000B8
:1000600035C0000033C0000031C000002FC00000C8
:100070002DC000002BC0000029C0000027C00000D8
:1000800025C0000023C0000021C00000AF00B20066
:10009000B500B800BB00BE00C100C400C700CA0064
:1000A000CD00D000D300D600D900DC0011241FBE43
:1000B000CFEFD0E1DEBFCDBF21E0A0E0B1E001C0D5
:1000C0001D92A230B207E1F735D085C099CF1F92BB
:1000D0000F920FB60F9211248F939F93809100017E
:1000E00090910101803191052CF4019690930101CA
:1000F000809300019F918F910F900FBE0F901F90E2
:1001000018951F920F920FB60F9211248F939F9301
:10011000809100019091010199232CF00197909317
:100120000101809300019F918F910F900FBE0F905E
:100130001F9018958FEF84BBEAE6F0E080818B601A
:10014000808389B7836089BF7894E0910001F09142
:100150000101E031F10598F5EA5BFF4F33C08FEB09
:1001600085BBF3CF86E085BBF0CF8BE585BBEDCFBC
:100170008FE485BBEACF86E685BBE7CF8DE685BBFE
:10018000E4CF8DE785BBE1CF87E085BBDECF8FE78E
:1001900085BBDBCF8FE685BBD8CF87E785BBD5CFC7
:1001A0008CE785BBD2CF89E385BBCFCF8EE585BBFE
:1001B000CCCF89E785BBC9CF81E785BBC6CF89E7AF
:1001C00085BBC3CFEE0FFF1F0024001C0BBE0790A2
:0A01D000F691E02D0994F894FFCF9A
:00000001FF
